{
  "_format": "hh-sol-artifact-1",
  "contractName": "SupplyChainRelay",
  "sourceName": "contracts/SupplyChainRelay.sol",
  "abi": [
    {
      "inputs": [],
      "stateMutability": "nonpayable",
      "type": "constructor"
    },
    {
      "anonymous": false,
      "inputs": [
        {
          "indexed": true,
          "internalType": "address",
          "name": "caller",
          "type": "address"
        },
        {
          "indexed": false,
          "internalType": "bool",
          "name": "allowed",
          "type": "bool"
        }
      ],
      "name": "AuthorizedCallerUpdated",
      "type": "event"
    },
    {
      "anonymous": false,
      "inputs": [
        {
          "indexed": false,
          "internalType": "string",
          "name": "shipmentId",
          "type": "string"
        },
        {
          "indexed": false,
          "internalType": "string",
          "name": "bundleId",
          "type": "string"
        },
        {
          "indexed": false,
          "internalType": "string",
          "name": "bundleHash",
          "type": "string"
        },
        {
          "indexed": true,
          "internalType": "address",
          "name": "previousCustodian",
          "type": "address"
        },
        {
          "indexed": true,
          "internalType": "address",
          "name": "newCustodian",
          "type": "address"
        },
        {
          "indexed": false,
          "internalType": "string",
          "name": "ipfsCid",
          "type": "string"
        },
        {
          "indexed": false,
          "internalType": "uint256",
          "name": "timestamp",
          "type": "uint256"
        }
      ],
      "name": "CustodyTransferred",
      "type": "event"
    },
    {
      "anonymous": false,
      "inputs": [
        {
          "indexed": true,
          "internalType": "address",
          "name": "previousOwner",
          "type": "address"
        },
        {
          "indexed": true,
          "internalType": "address",
          "name": "newOwner",
          "type": "address"
        }
      ],
      "name": "OwnershipTransferred",
      "type": "event"
    },
    {
      "inputs": [
        {
          "internalType": "bytes32",
          "name": "",
          "type": "bytes32"
        }
      ],
      "name": "anchoredBundleKeys",
      "outputs": [
        {
          "internalType": "bool",
          "name": "",
          "type": "bool"
        }
      ],
      "stateMutability": "view",
      "type": "function"
    },
    {
      "inputs": [
        {
          "internalType": "address",
          "name": "",
          "type": "address"
        }
      ],
      "name": "authorizedCallers",
      "outputs": [
        {
          "internalType": "bool",
          "name": "",
          "type": "bool"
        }
      ],
      "stateMutability": "view",
      "type": "function"
    },
    {
      "inputs": [
        {
          "internalType": "string",
          "name": "",
          "type": "string"
        }
      ],
      "name": "currentCustodian",
      "outputs": [
        {
          "internalType": "address",
          "name": "",
          "type": "address"
        }
      ],
      "stateMutability": "view",
      "type": "function"
    },
    {
      "inputs": [],
      "name": "owner",
      "outputs": [
        {
          "internalType": "address",
          "name": "",
          "type": "address"
        }
      ],
      "stateMutability": "view",
      "type": "function"
    },
    {
      "inputs": [
        {
          "internalType": "uint256",
          "name": "",
          "type": "uint256"
        }
      ],
      "name": "records",
      "outputs": [
        {
          "internalType": "string",
          "name": "shipmentId",
          "type": "string"
        },
        {
          "internalType": "string",
          "name": "bundleId",
          "type": "string"
        },
        {
          "internalType": "string",
          "name": "bundleHash",
          "type": "string"
        },
        {
          "internalType": "address",
          "name": "previousCustodian",
          "type": "address"
        },
        {
          "internalType": "address",
          "name": "newCustodian",
          "type": "address"
        },
        {
          "internalType": "string",
          "name": "ipfsCid",
          "type": "string"
        },
        {
          "internalType": "uint256",
          "name": "timestamp",
          "type": "uint256"
        }
      ],
      "stateMutability": "view",
      "type": "function"
    },
    {
      "inputs": [],
      "name": "recordsCount",
      "outputs": [
        {
          "internalType": "uint256",
          "name": "",
          "type": "uint256"
        }
      ],
      "stateMutability": "view",
      "type": "function"
    },
    {
      "inputs": [
        {
          "internalType": "address",
          "name": "caller",
          "type": "address"
        },
        {
          "internalType": "bool",
          "name": "allowed",
          "type": "bool"
        }
      ],
      "name": "setAuthorizedCaller",
      "outputs": [],
      "stateMutability": "nonpayable",
      "type": "function"
    },
    {
      "inputs": [
        {
          "internalType": "string",
          "name": "",
          "type": "string"
        }
      ],
      "name": "shipmentTransferCount",
      "outputs": [
        {
          "internalType": "uint256",
          "name": "",
          "type": "uint256"
        }
      ],
      "stateMutability": "view",
      "type": "function"
    },
    {
      "inputs": [
        {
          "internalType": "string",
          "name": "shipmentId",
          "type": "string"
        },
        {
          "internalType": "string",
          "name": "bundleId",
          "type": "string"
        },
        {
          "internalType": "string",
          "name": "bundleHash",
          "type": "string"
        },
        {
          "internalType": "address",
          "name": "previousCustodian",
          "type": "address"
        },
        {
          "internalType": "string",
          "name": "ipfsCid",
          "type": "string"
        }
      ],
      "name": "transferCustody",
      "outputs": [],
      "stateMutability": "nonpayable",
      "type": "function"
    },
    {
      "inputs": [
        {
          "internalType": "address",
          "name": "newOwner",
          "type": "address"
        }
      ],
      "name": "transferOwnership",
      "outputs": [],
      "stateMutability": "nonpayable",
      "type": "function"
    }
  ],
  "bytecode": "0x60806040523480156200001157600080fd5b50336000806101000a81548173ffffffffffffffffffffffffffffffffffffffff021916908373ffffffffffffffffffffffffffffffffffffffff1602179055506001600260003373ffffffffffffffffffffffffffffffffffffffff1673ffffffffffffffffffffffffffffffffffffffff16815260200190815260200160002060006101000a81548160ff0219169083151502179055503373ffffffffffffffffffffffffffffffffffffffff16600073ffffffffffffffffffffffffffffffffffffffff167f8be0079c531659141344cd1fd0a4f28419497f9722a3daafe3b4186f6b6457e060405160405180910390a33373ffffffffffffffffffffffffffffffffffffffff167fad857fa38c9319cb80848f1ef2f924383b90297eb5d71755738ff037d100faa160016040516200014e919062000179565b60405180910390a262000196565b60008115159050919050565b62000173816200015c565b82525050565b600060208201905062000190600083018462000168565b92915050565b61208a80620001a66000396000f3fe608060405234801561001057600080fd5b506004361061009e5760003560e01c80638da5cb5b116100665780638da5cb5b14610185578063a0279f2d146101a3578063cb2350e9146101bf578063eb3dbf83146101ef578063f2fde38b1461020d5761009e565b8063178c2873146100a357806334461067146100d3578063454bbd2914610109578063536fff6c14610125578063739c796014610155575b600080fd5b6100bd60048036038101906100b891906111e7565b610229565b6040516100ca9190611249565b60405180910390f35b6100ed60048036038101906100e89190611290565b610257565b604051610100979695949392919061137d565b60405180910390f35b610123600480360381019061011e919061146c565b610509565b005b61013f600480360381019061013a91906114ac565b6106af565b60405161014c91906114e8565b60405180910390f35b61016f600480360381019061016a9190611539565b6106cf565b60405161017c91906114e8565b60405180910390f35b61018d6106ef565b60405161019a9190611566565b60405180910390f35b6101bd60048036038101906101b891906115e1565b610713565b005b6101d960048036038101906101d491906111e7565b610e76565b6040516101e69190611566565b60405180910390f35b6101f7610ebf565b6040516102049190611249565b60405180910390f35b610227600480360381019061022291906114ac565b610ecc565b005b6004818051602081018201805184825260208301602085012081835280955050505050506000915090505481565b6005818154811061026757600080fd5b906000526020600020906007020160009150905080600001805461028a9061170c565b80601f01602080910402602001604051908101604052809291908181526020018280546102b69061170c565b80156103035780601f106102d857610100808354040283529160200191610303565b820191906000526020600020905b8154815290600101906020018083116102e657829003601f168201915b5050505050908060010180546103189061170c565b80601f01602080910402602001604051908101604052809291908181526020018280546103449061170c565b80156103915780601f1061036657610100808354040283529160200191610391565b820191906000526020600020905b81548152906001019060200180831161037457829003601f168201915b5050505050908060020180546103a69061170c565b80601f01602080910402602001604051908101604052809291908181526020018280546103d29061170c565b801561041f5780601f106103f45761010080835404028352916020019161041f565b820191906000526020600020905b81548152906001019060200180831161040257829003601f168201915b5050505050908060030160009054906101000a900473ffffffffffffffffffffffffffffffffffffffff16908060040160009054906101000a900473ffffffffffffffffffffffffffffffffffffffff16908060050180546104809061170c565b80601f01602080910402602001604051908101604052809291908181526020018280546104ac9061170c565b80156104f95780601f106104ce576101008083540402835291602001916104f9565b820191906000526020600020905b8154815290600101906020018083116104dc57829003601f168201915b5050505050908060060154905087565b60008054906101000a900473ffffffffffffffffffffffffffffffffffffffff1673ffffffffffffffffffffffffffffffffffffffff163373ffffffffffffffffffffffffffffffffffffffff1614610597576040517f08c379a000000000000000000000000000000000000000000000000000000000815260040161058e90611789565b60405180910390fd5b600073ffffffffffffffffffffffffffffffffffffffff168273ffffffffffffffffffffffffffffffffffffffff1603610606576040517f08c379a00000000000000000000000000000000000000000000000000000000081526004016105fd906117f5565b60405180910390fd5b80600260008473ffffffffffffffffffffffffffffffffffffffff1673ffffffffffffffffffffffffffffffffffffffff16815260200190815260200160002060006101000a81548160ff0219169083151502179055508173ffffffffffffffffffffffffffffffffffffffff167fad857fa38c9319cb80848f1ef2f924383b90297eb5d71755738ff037d100faa1826040516106a391906114e8565b60405180910390a25050565b60026020528060005260406000206000915054906101000a900460ff1681565b60036020528060005260406000206000915054906101000a900460ff1681565b60008054906101000a900473ffffffffffffffffffffffffffffffffffffffff1681565b600260003373ffffffffffffffffffffffffffffffffffffffff1673ffffffffffffffffffffffffffffffffffffffff16815260200190815260200160002060009054906101000a900460ff1661079f576040517f08c379a000000000000000000000000000000000000000000000000000000000815260040161079690611861565b60405180910390fd5b600089899050116107e5576040517f08c379a00000000000000000000000000000000000000000000000000000000081526004016107dc906118cd565b60405180910390fd5b6000878790501161082b576040517f08c379a000000000000000000000000000000000000000000000000000000000815260040161082290611939565b60405180910390fd5b60008585905011610871576040517f08c379a0000000000000000000000000000000000000000000000000000000008152600401610868906119a5565b60405180910390fd5b600082829050116108b7576040517f08c379a00000000000000000000000000000000000000000000000000000000081526004016108ae90611a11565b60405180910390fd5b6000898989896040516020016108d09493929190611aad565b6040516020818303038152906040528051906020012090506003600082815260200190815260200160002060009054906101000a900460ff1615610949576040517f08c379a000000000000000000000000000000000000000000000000000000000815260040161094090611b2c565b60405180910390fd5b600060018b8b60405161095d929190611b4c565b908152602001604051809103902060009054906101000a900473ffffffffffffffffffffffffffffffffffffffff169050600073ffffffffffffffffffffffffffffffffffffffff168173ffffffffffffffffffffffffffffffffffffffff1603610a3657600073ffffffffffffffffffffffffffffffffffffffff168573ffffffffffffffffffffffffffffffffffffffff1614610a31576040517f08c379a0000000000000000000000000000000000000000000000000000000008152600401610a2890611bd7565b60405180910390fd5b610aa5565b8073ffffffffffffffffffffffffffffffffffffffff168573ffffffffffffffffffffffffffffffffffffffff1614610aa4576040517f08c379a0000000000000000000000000000000000000000000000000000000008152600401610a9b90611c43565b60405180910390fd5b5b60016003600084815260200190815260200160002060006101000a81548160ff0219169083151502179055503360018c8c604051610ae4929190611b4c565b908152602001604051809103902060006101000a81548173ffffffffffffffffffffffffffffffffffffffff021916908373ffffffffffffffffffffffffffffffffffffffff160217905550600160048c8c604051610b44929190611b4c565b90815260200160405180910390206000828254610b619190611c92565b9250508190555060056040518060e001604052808d8d8080601f016020809104026020016040519081016040528093929190818152602001838380828437600081840152601f19601f8201169050808301925050505050505081526020018b8b8080601f016020809104026020016040519081016040528093929190818152602001838380828437600081840152601f19601f82011690508083019250505050505050815260200189898080601f016020809104026020016040519081016040528093929190818152602001838380828437600081840152601f19601f8201169050808301925050505050505081526020018773ffffffffffffffffffffffffffffffffffffffff1681526020013373ffffffffffffffffffffffffffffffffffffffff16815260200186868080601f016020809104026020016040519081016040528093929190818152602001838380828437600081840152601f19601f8201169050808301925050505050505081526020014281525090806001815401808255809150506001900390600052602060002090600702016000909190919091506000820151816000019081610d179190611e72565b506020820151816001019081610d2d9190611e72565b506040820151816002019081610d439190611e72565b5060608201518160030160006101000a81548173ffffffffffffffffffffffffffffffffffffffff021916908373ffffffffffffffffffffffffffffffffffffffff16021790555060808201518160040160006101000a81548173ffffffffffffffffffffffffffffffffffffffff021916908373ffffffffffffffffffffffffffffffffffffffff16021790555060a0820151816005019081610de79190611e72565b5060c0820151816006015550503373ffffffffffffffffffffffffffffffffffffffff168573ffffffffffffffffffffffffffffffffffffffff167f77485b45f68dd1ec4cc2f5fa45f6ece248039fd0422ceb162ad15037390b8b208d8d8d8d8d8d8c8c42604051610e6199989796959493929190611f71565b60405180910390a35050505050505050505050565b6001818051602081018201805184825260208301602085012081835280955050505050506000915054906101000a900473ffffffffffffffffffffffffffffffffffffffff1681565b6000600580549050905090565b60008054906101000a900473ffffffffffffffffffffffffffffffffffffffff1673ffffffffffffffffffffffffffffffffffffffff163373ffffffffffffffffffffffffffffffffffffffff1614610f5a576040517f08c379a0000000000000000000000000000000000000000000000000000000008152600401610f5190611789565b60405180910390fd5b600073ffffffffffffffffffffffffffffffffffffffff168173ffffffffffffffffffffffffffffffffffffffff1603610fc9576040517f08c379a0000000000000000000000000000000000000000000000000000000008152600401610fc090612034565b60405180910390fd5b60008060009054906101000a900473ffffffffffffffffffffffffffffffffffffffff169050816000806101000a81548173ffffffffffffffffffffffffffffffffffffffff021916908373ffffffffffffffffffffffffffffffffffffffff1602179055508173ffffffffffffffffffffffffffffffffffffffff168173ffffffffffffffffffffffffffffffffffffffff167f8be0079c531659141344cd1fd0a4f28419497f9722a3daafe3b4186f6b6457e060405160405180910390a35050565b6000604051905090565b600080fd5b600080fd5b600080fd5b600080fd5b6000601f19601f8301169050919050565b7f4e487b7100000000000000000000000000000000000000000000000000000000600052604160045260246000fd5b6110f4826110ab565b810181811067ffffffffffffffff82111715611113576111126110bc565b5b80604052505050565b600061112661108d565b905061113282826110eb565b919050565b600067ffffffffffffffff821115611152576111516110bc565b5b61115b826110ab565b9050602081019050919050565b82818337600083830152505050565b600061118a61118584611137565b61111c565b9050828152602081018484840111156111a6576111a56110a6565b5b6111b1848285611168565b509392505050565b600082601f8301126111ce576111cd6110a1565b5b81356111de848260208601611177565b91505092915050565b6000602082840312156111fd576111fc611097565b5b600082013567ffffffffffffffff81111561121b5761121a61109c565b5b611227848285016111b9565b91505092915050565b6000819050919050565b61124381611230565b82525050565b600060208201905061125e600083018461123a565b92915050565b61126d81611230565b811461127857600080fd5b50565b60008135905061128a81611264565b92915050565b6000602082840312156112a6576112a5611097565b5b60006112b48482850161127b565b91505092915050565b600081519050919050565b600082825260208201905092915050565b60005b838110156112f75780820151818401526020810190506112dc565b60008484015250505050565b600061130e826112bd565b61131881856112c8565b93506113288185602086016112d9565b611331816110ab565b840191505092915050565b600073ffffffffffffffffffffffffffffffffffffffff82169050919050565b60006113678261133c565b9050919050565b6113778161135c565b82525050565b600060e0820190508181036000830152611397818a611303565b905081810360208301526113ab8189611303565b905081810360408301526113bf8188611303565b90506113ce606083018761136e565b6113db608083018661136e565b81810360a08301526113ed8185611303565b90506113fc60c083018461123a565b98975050505050505050565b6114118161135c565b811461141c57600080fd5b50565b60008135905061142e81611408565b92915050565b60008115159050919050565b61144981611434565b811461145457600080fd5b50565b60008135905061146681611440565b92915050565b6000806040838503121561148357611482611097565b5b60006114918582860161141f565b92505060206114a285828601611457565b9150509250929050565b6000602082840312156114c2576114c1611097565b5b60006114d08482850161141f565b91505092915050565b6114e281611434565b82525050565b60006020820190506114fd60008301846114d9565b92915050565b6000819050919050565b61151681611503565b811461152157600080fd5b50565b6000813590506115338161150d565b92915050565b60006020828403121561154f5761154e611097565b5b600061155d84828501611524565b91505092915050565b600060208201905061157b600083018461136e565b92915050565b600080fd5b600080fd5b60008083601f8401126115a1576115a06110a1565b5b8235905067ffffffffffffffff8111156115be576115bd611581565b5b6020830191508360018202830111156115da576115d9611586565b5b9250929050565b600080600080600080600080600060a08a8c03121561160357611602611097565b5b60008a013567ffffffffffffffff8111156116215761162061109c565b5b61162d8c828d0161158b565b995099505060208a013567ffffffffffffffff8111156116505761164f61109c565b5b61165c8c828d0161158b565b975097505060408a013567ffffffffffffffff81111561167f5761167e61109c565b5b61168b8c828d0161158b565b9550955050606061169e8c828d0161141f565b93505060808a013567ffffffffffffffff8111156116bf576116be61109c565b5b6116cb8c828d0161158b565b92509250509295985092959850929598565b7f4e487b7100000000000000000000000000000000000000000000000000000000600052602260045260246000fd5b6000600282049050600182168061172457607f821691505b602082108103611737576117366116dd565b5b50919050565b7f4e4f545f4f574e45520000000000000000000000000000000000000000000000600082015250565b60006117736009836112c8565b915061177e8261173d565b602082019050919050565b600060208201905081810360008301526117a281611766565b9050919050565b7f494e56414c49445f43414c4c4552000000000000000000000000000000000000600082015250565b60006117df600e836112c8565b91506117ea826117a9565b602082019050919050565b6000602082019050818103600083015261180e816117d2565b9050919050565b7f43414c4c45525f4e4f545f415554484f52495a45440000000000000000000000600082015250565b600061184b6015836112c8565b915061185682611815565b602082019050919050565b6000602082019050818103600083015261187a8161183e565b9050919050565b7f454d5054595f534849504d454e545f4944000000000000000000000000000000600082015250565b60006118b76011836112c8565b91506118c282611881565b602082019050919050565b600060208201905081810360008301526118e6816118aa565b9050919050565b7f454d5054595f42554e444c455f49440000000000000000000000000000000000600082015250565b6000611923600f836112c8565b915061192e826118ed565b602082019050919050565b6000602082019050818103600083015261195281611916565b9050919050565b7f454d5054595f42554e444c455f48415348000000000000000000000000000000600082015250565b600061198f6011836112c8565b915061199a82611959565b602082019050919050565b600060208201905081810360008301526119be81611982565b9050919050565b7f454d5054595f495046535f434944000000000000000000000000000000000000600082015250565b60006119fb600e836112c8565b9150611a06826119c5565b602082019050919050565b60006020820190508181036000830152611a2a816119ee565b9050919050565b600081905092915050565b6000611a488385611a31565b9350611a55838584611168565b82840190509392505050565b7f7c00000000000000000000000000000000000000000000000000000000000000600082015250565b6000611a97600183611a31565b9150611aa282611a61565b600182019050919050565b6000611aba828688611a3c565b9150611ac582611a8a565b9150611ad2828486611a3c565b915081905095945050505050565b7f42554e444c455f414c52454144595f414e43484f524544000000000000000000600082015250565b6000611b166017836112c8565b9150611b2182611ae0565b602082019050919050565b60006020820190508181036000830152611b4581611b09565b9050919050565b6000611b59828486611a3c565b91508190509392505050565b7f494e56414c49445f494e495449414c5f50524556494f55535f435553544f444960008201527f414e000000000000000000000000000000000000000000000000000000000000602082015250565b6000611bc16022836112c8565b9150611bcc82611b65565b604082019050919050565b60006020820190508181036000830152611bf081611bb4565b9050919050565b7f435553544f44595f53455155454e43455f4d49534d4154434800000000000000600082015250565b6000611c2d6019836112c8565b9150611c3882611bf7565b602082019050919050565b60006020820190508181036000830152611c5c81611c20565b9050919050565b7f4e487b7100000000000000000000000000000000000000000000000000000000600052601160045260246000fd5b6000611c9d82611230565b9150611ca883611230565b9250828201905080821115611cc057611cbf611c63565b5b92915050565b60008190508160005260206000209050919050565b60006020601f8301049050919050565b600082821b905092915050565b600060088302611d287fffffffffffffffffffffffffffffffffffffffffffffffffffffffffffffffff82611ceb565b611d328683611ceb565b95508019841693508086168417925050509392505050565b6000819050919050565b6000611d6f611d6a611d6584611230565b611d4a565b611230565b9050919050565b6000819050919050565b611d8983611d54565b611d9d611d9582611d76565b848454611cf8565b825550505050565b600090565b611db2611da5565b611dbd818484611d80565b505050565b5b81811015611de157611dd6600082611daa565b600181019050611dc3565b5050565b601f821115611e2657611df781611cc6565b611e0084611cdb565b81016020851015611e0f578190505b611e23611e1b85611cdb565b830182611dc2565b50505b505050565b600082821c905092915050565b6000611e4960001984600802611e2b565b1980831691505092915050565b6000611e628383611e38565b9150826002028217905092915050565b611e7b826112bd565b67ffffffffffffffff811115611e9457611e936110bc565b5b611e9e825461170c565b611ea9828285611de5565b600060209050601f831160018114611edc5760008415611eca578287015190505b611ed48582611e56565b865550611f3c565b601f198416611eea86611cc6565b60005b82811015611f1257848901518255600182019150602085019450602081019050611eed565b86831015611f2f5784890151611f2b601f891682611e38565b8355505b6001600288020188555050505b505050505050565b6000611f5083856112c8565b9350611f5d838584611168565b611f66836110ab565b840190509392505050565b600060a0820190508181036000830152611f8c818b8d611f44565b90508181036020830152611fa181898b611f44565b90508181036040830152611fb6818789611f44565b90508181036060830152611fcb818587611f44565b9050611fda608083018461123a565b9a9950505050505050505050565b7f494e56414c49445f4f574e455200000000000000000000000000000000000000600082015250565b600061201e600d836112c8565b915061202982611fe8565b602082019050919050565b6000602082019050818103600083015261204d81612011565b905091905056fea2646970667358221220832903dca1b053806122fa8aa652071442caeb1ff07426fc3be16396e64094de64736f6c63430008140033",
  "linkReferences": {},
  "deployedLinkReferences": {}
}