{
  "_format": "hh-sol-artifact-1",
  "contractName": "SupplyChainRelay",
  "sourceName": "contracts/SupplyChainRelay.sol",
  "abi": [
    {
      "anonymous": false,
      "inputs": [
        {
          "indexed": false,
          "internalType": "string",
          "name": "shipmentId",
          "type": "string"
        },
        {
          "indexed": true,
          "internalType": "address",
          "name": "previousCustodian",
          "type": "address"
        },
        {
          "indexed": true,
          "internalType": "address",
          "name": "newCustodian",
          "type": "address"
        },
        {
          "indexed": false,
          "internalType": "string",
          "name": "ipfsCid",
          "type": "string"
        },
        {
          "indexed": false,
          "internalType": "uint256",
          "name": "timestamp",
          "type": "uint256"
        }
      ],
      "name": "CustodyTransferred",
      "type": "event"
    },
    {
      "inputs": [
        {
          "internalType": "string",
          "name": "",
          "type": "string"
        }
      ],
      "name": "currentCustodian",
      "outputs": [
        {
          "internalType": "address",
          "name": "",
          "type": "address"
        }
      ],
      "stateMutability": "view",
      "type": "function"
    },
    {
      "inputs": [
        {
          "internalType": "uint256",
          "name": "",
          "type": "uint256"
        }
      ],
      "name": "records",
      "outputs": [
        {
          "internalType": "string",
          "name": "shipmentId",
          "type": "string"
        },
        {
          "internalType": "address",
          "name": "previousCustodian",
          "type": "address"
        },
        {
          "internalType": "address",
          "name": "newCustodian",
          "type": "address"
        },
        {
          "internalType": "string",
          "name": "ipfsCid",
          "type": "string"
        },
        {
          "internalType": "uint256",
          "name": "timestamp",
          "type": "uint256"
        }
      ],
      "stateMutability": "view",
      "type": "function"
    },
    {
      "inputs": [
        {
          "internalType": "string",
          "name": "shipmentId",
          "type": "string"
        },
        {
          "internalType": "address",
          "name": "previousCustodian",
          "type": "address"
        },
        {
          "internalType": "string",
          "name": "ipfsCid",
          "type": "string"
        }
      ],
      "name": "transferCustody",
      "outputs": [],
      "stateMutability": "nonpayable",
      "type": "function"
    }
  ],
  "bytecode": "0x608060405234801561001057600080fd5b50610d89806100206000396000f3fe608060405234801561001057600080fd5b50600436106100415760003560e01c806334461067146100465780636746d2521461007a578063cb2350e914610096575b600080fd5b610060600480360381019061005b919061058e565b6100c6565b60405161007195949392919061069b565b60405180910390f35b610094600480360381019061008f919061078d565b61025c565b005b6100b060048036038101906100ab9190610952565b6104fb565b6040516100bd919061099b565b60405180910390f35b600181815481106100d657600080fd5b90600052602060002090600502016000915090508060000180546100f9906109e5565b80601f0160208091040260200160405190810160405280929190818152602001828054610125906109e5565b80156101725780601f1061014757610100808354040283529160200191610172565b820191906000526020600020905b81548152906001019060200180831161015557829003601f168201915b5050505050908060010160009054906101000a900473ffffffffffffffffffffffffffffffffffffffff16908060020160009054906101000a900473ffffffffffffffffffffffffffffffffffffffff16908060030180546101d3906109e5565b80601f01602080910402602001604051908101604052809291908181526020018280546101ff906109e5565b801561024c5780601f106102215761010080835404028352916020019161024c565b820191906000526020600020905b81548152906001019060200180831161022f57829003601f168201915b5050505050908060040154905085565b336000868660405161026f929190610a46565b908152602001604051809103902060006101000a81548173ffffffffffffffffffffffffffffffffffffffff021916908373ffffffffffffffffffffffffffffffffffffffff16021790555060016040518060a0016040528087878080601f016020809104026020016040519081016040528093929190818152602001838380828437600081840152601f19601f8201169050808301925050505050505081526020018573ffffffffffffffffffffffffffffffffffffffff1681526020013373ffffffffffffffffffffffffffffffffffffffff16815260200184848080601f016020809104026020016040519081016040528093929190818152602001838380828437600081840152601f19601f82011690508083019250505050505050815260200142815250908060018154018082558091505060019003906000526020600020906005020160009091909190915060008201518160000190816103d69190610c0b565b5060208201518160010160006101000a81548173ffffffffffffffffffffffffffffffffffffffff021916908373ffffffffffffffffffffffffffffffffffffffff16021790555060408201518160020160006101000a81548173ffffffffffffffffffffffffffffffffffffffff021916908373ffffffffffffffffffffffffffffffffffffffff160217905550606082015181600301908161047a9190610c0b565b506080820151816004015550503373ffffffffffffffffffffffffffffffffffffffff168373ffffffffffffffffffffffffffffffffffffffff167f2690379d5767b75310586b81123385a5c126a70b355c961f62800c5f579c214787878686426040516104ec959493929190610d0a565b60405180910390a35050505050565b6000818051602081018201805184825260208301602085012081835280955050505050506000915054906101000a900473ffffffffffffffffffffffffffffffffffffffff1681565b6000604051905090565b600080fd5b600080fd5b6000819050919050565b61056b81610558565b811461057657600080fd5b50565b60008135905061058881610562565b92915050565b6000602082840312156105a4576105a361054e565b5b60006105b284828501610579565b91505092915050565b600081519050919050565b600082825260208201905092915050565b60005b838110156105f55780820151818401526020810190506105da565b60008484015250505050565b6000601f19601f8301169050919050565b600061061d826105bb565b61062781856105c6565b93506106378185602086016105d7565b61064081610601565b840191505092915050565b600073ffffffffffffffffffffffffffffffffffffffff82169050919050565b60006106768261064b565b9050919050565b6106868161066b565b82525050565b61069581610558565b82525050565b600060a08201905081810360008301526106b58188610612565b90506106c4602083018761067d565b6106d1604083018661067d565b81810360608301526106e38185610612565b90506106f2608083018461068c565b9695505050505050565b600080fd5b600080fd5b600080fd5b60008083601f840112610721576107206106fc565b5b8235905067ffffffffffffffff81111561073e5761073d610701565b5b60208301915083600182028301111561075a57610759610706565b5b9250929050565b61076a8161066b565b811461077557600080fd5b50565b60008135905061078781610761565b92915050565b6000806000806000606086880312156107a9576107a861054e565b5b600086013567ffffffffffffffff8111156107c7576107c6610553565b5b6107d38882890161070b565b955095505060206107e688828901610778565b935050604086013567ffffffffffffffff81111561080757610806610553565b5b6108138882890161070b565b92509250509295509295909350565b600080fd5b7f4e487b7100000000000000000000000000000000000000000000000000000000600052604160045260246000fd5b61085f82610601565b810181811067ffffffffffffffff8211171561087e5761087d610827565b5b80604052505050565b6000610891610544565b905061089d8282610856565b919050565b600067ffffffffffffffff8211156108bd576108bc610827565b5b6108c682610601565b9050602081019050919050565b82818337600083830152505050565b60006108f56108f0846108a2565b610887565b90508281526020810184848401111561091157610910610822565b5b61091c8482856108d3565b509392505050565b600082601f830112610939576109386106fc565b5b81356109498482602086016108e2565b91505092915050565b6000602082840312156109685761096761054e565b5b600082013567ffffffffffffffff81111561098657610985610553565b5b61099284828501610924565b91505092915050565b60006020820190506109b0600083018461067d565b92915050565b7f4e487b7100000000000000000000000000000000000000000000000000000000600052602260045260246000fd5b600060028204905060018216806109fd57607f821691505b602082108103610a1057610a0f6109b6565b5b50919050565b600081905092915050565b6000610a2d8385610a16565b9350610a3a8385846108d3565b82840190509392505050565b6000610a53828486610a21565b91508190509392505050565b60008190508160005260206000209050919050565b60006020601f8301049050919050565b600082821b905092915050565b600060088302610ac17fffffffffffffffffffffffffffffffffffffffffffffffffffffffffffffffff82610a84565b610acb8683610a84565b95508019841693508086168417925050509392505050565b6000819050919050565b6000610b08610b03610afe84610558565b610ae3565b610558565b9050919050565b6000819050919050565b610b2283610aed565b610b36610b2e82610b0f565b848454610a91565b825550505050565b600090565b610b4b610b3e565b610b56818484610b19565b505050565b5b81811015610b7a57610b6f600082610b43565b600181019050610b5c565b5050565b601f821115610bbf57610b9081610a5f565b610b9984610a74565b81016020851015610ba8578190505b610bbc610bb485610a74565b830182610b5b565b50505b505050565b600082821c905092915050565b6000610be260001984600802610bc4565b1980831691505092915050565b6000610bfb8383610bd1565b9150826002028217905092915050565b610c14826105bb565b67ffffffffffffffff811115610c2d57610c2c610827565b5b610c3782546109e5565b610c42828285610b7e565b600060209050601f831160018114610c755760008415610c63578287015190505b610c6d8582610bef565b865550610cd5565b601f198416610c8386610a5f565b60005b82811015610cab57848901518255600182019150602085019450602081019050610c86565b86831015610cc85784890151610cc4601f891682610bd1565b8355505b6001600288020188555050505b505050505050565b6000610ce983856105c6565b9350610cf68385846108d3565b610cff83610601565b840190509392505050565b60006060820190508181036000830152610d25818789610cdd565b90508181036020830152610d3a818587610cdd565b9050610d49604083018461068c565b969550505050505056fea264697066735822122027bd96e0df40005701e2648aa8a5473cf7ccea4faba24a98f1192a427719deb764736f6c63430008140033",
  "linkReferences": {},
  "deployedLinkReferences": {}
}